{"project/contracts/DIDRegistry.sol":{"DIDRegistry":{"abi":[{"anonymous":false,"inputs":[{"indexed":true,"internalType":"bytes32","name":"didHash","type":"bytes32"},{"indexed":true,"internalType":"address","name":"controller","type":"address"}],"name":"IssuerRegistered","type":"event"},{"anonymous":false,"inputs":[{"indexed":true,"internalType":"bytes32","name":"didHash","type":"bytes32"},{"indexed":true,"internalType":"address","name":"controller","type":"address"}],"name":"KeyRotated","type":"event"},{"inputs":[{"internalType":"bytes32","name":"didHash","type":"bytes32"}],"name":"isRegistered","outputs":[{"internalType":"bool","name":"","type":"bool"}],"stateMutability":"view","type":"function"},{"inputs":[{"internalType":"bytes32","name":"didHash","type":"bytes32"},{"internalType":"bytes","name":"pubKey","type":"bytes"}],"name":"registerIssuer","outputs":[],"stateMutability":"nonpayable","type":"function"},{"inputs":[{"internalType":"bytes32","name":"didHash","type":"bytes32"}],"name":"resolveKey","outputs":[{"internalType":"bytes","name":"","type":"bytes"}],"stateMutability":"view","type":"function"},{"inputs":[{"internalType":"bytes32","name":"didHash","type":"bytes32"},{"internalType":"bytes","name":"newPubKey","type":"bytes"}],"name":"rotateKey","outputs":[],"stateMutability":"nonpayable","type":"function"}],"evm":{"bytecode":{"linkReferences":{},"object":"608060405234801561000f575f80fd5b506107aa8061001d5f395ff3fe608060405234801561000f575f80fd5b506004361061004a575f3560e01c8063101accbf1461004e57806327258b221461007757806390744500146100ac578063c8ce191a146100c1575b5f80fd5b61006161005c36600461048a565b6100d4565b60405161006e91906104a1565b60405180910390f35b61009c61008536600461048a565b5f9081526020819052604090206001015460ff1690565b604051901515815260200161006e565b6100bf6100ba3660046104ed565b6101c7565b005b6100bf6100cf3660046104ed565b61030c565b5f8181526020819052604090206001015460609060ff1661012c5760405162461bcd60e51b815260206004820152600d60248201526c111251081b9bdd08199bdd5b99609a1b60448201526064015b60405180910390fd5b5f828152602081905260409020805461014490610562565b80601f016020809104026020016040519081016040528092919081815260200182805461017090610562565b80156101bb5780601f10610192576101008083540402835291602001916101bb565b820191905f5260205f20905b81548152906001019060200180831161019e57829003601f168201915b50505050509050919050565b5f8381526020819052604090206001015460ff1661021c5760405162461bcd60e51b8152602060048201526012602482015271111251081b9bdd081c9959da5cdd195c995960721b6044820152606401610123565b5f8381526020819052604090206001015461010090046001600160a01b0316331461027a5760405162461bcd60e51b815260206004820152600e60248201526d2737ba1031b7b73a3937b63632b960911b6044820152606401610123565b602081146102c25760405162461bcd60e51b8152602060048201526015602482015274092dcecc2d8d2c840e0eac496caf240d8cadccee8d605b1b6044820152606401610123565b5f8381526020819052604090206102da8284836105fa565b50604051339084907f894a01ce40996b3c58922261025ca2273e0288ffa7cee801b3ae4a54a1c4d677905f90a3505050565b5f8381526020819052604090206001015460ff16156103665760405162461bcd60e51b815260206004820152601660248201527511125108185b1c9958591e481c9959da5cdd195c995960521b6044820152606401610123565b602081146103ae5760405162461bcd60e51b8152602060048201526015602482015274092dcecc2d8d2c840e0eac496caf240d8cadccee8d605b1b6044820152606401610123565b604051806060016040528083838080601f0160208091040260200160405190810160405280939291908181526020018383808284375f920182905250938552505060016020808501919091523360409485015287835282905250208151819061041790826106b4565b506020820151600190910180546040938401516001600160a01b031661010002610100600160a81b0319931515939093166001600160a81b03199091161791909117905551339084907ff963d5c3a42ba726123dea0d456b5e232130b44683f6554aad80a745bb5965e9905f90a3505050565b5f6020828403121561049a575f80fd5b5035919050565b5f602080835283518060208501525f5b818110156104cd578581018301518582016040015282016104b1565b505f604082860101526040601f19601f8301168501019250505092915050565b5f805f604084860312156104ff575f80fd5b83359250602084013567ffffffffffffffff8082111561051d575f80fd5b818601915086601f830112610530575f80fd5b81358181111561053e575f80fd5b87602082850101111561054f575f80fd5b6020830194508093505050509250925092565b600181811c9082168061057657607f821691505b60208210810361059457634e487b7160e01b5f52602260045260245ffd5b50919050565b634e487b7160e01b5f52604160045260245ffd5b601f8211156105f557805f5260205f20601f840160051c810160208510156105d35750805b601f840160051c820191505b818110156105f2575f81556001016105df565b50505b505050565b67ffffffffffffffff8311156106125761061261059a565b610626836106208354610562565b836105ae565b5f601f841160018114610657575f85156106405750838201355b5f19600387901b1c1916600186901b1783556105f2565b5f83815260208120601f198716915b828110156106865786850135825560209485019460019092019101610666565b50868210156106a2575f1960f88860031b161c19848701351681555b505060018560011b0183555050505050565b815167ffffffffffffffff8111156106ce576106ce61059a565b6106e2816106dc8454610562565b846105ae565b602080601f831160018114610715575f84156106fe5750858301515b5f19600386901b1c1916600185901b17855561076c565b5f85815260208120601f198616915b8281101561074357888601518255948401946001909101908401610724565b508582101561076057878501515f19600388901b60f8161c191681555b505060018460011b0185555b50505050505056fea2646970667358221220f7274d6d3e9e6f21fe011e4cf4448197f4e056242de367d15e48208a843a3eee64736f6c63430008180033","opcodes":"PUSH1 0x80 PUSH1 0x40 MSTORE CALLVALUE DUP1 ISZERO PUSH2 0xF JUMPI PUSH0 DUP1 REVERT JUMPDEST POP PUSH2 0x7AA DUP1 PUSH2 0x1D PUSH0 CODECOPY PUSH0 RETURN INVALID PUSH1 0x80 PUSH1 0x40 MSTORE CALLVALUE DUP1 ISZERO PUSH2 0xF JUMPI PUSH0 DUP1 REVERT JUMPDEST POP PUSH1 0x4 CALLDATASIZE LT PUSH2 0x4A JUMPI PUSH0 CALLDATALOAD PUSH1 0xE0 SHR DUP1 PUSH4 0x101ACCBF EQ PUSH2 0x4E JUMPI DUP1 PUSH4 0x27258B22 EQ PUSH2 0x77 JUMPI DUP1 PUSH4 0x90744500 EQ PUSH2 0xAC JUMPI DUP1 PUSH4 0xC8CE191A EQ PUSH2 0xC1 JUMPI JUMPDEST PUSH0 DUP1 REVERT JUMPDEST PUSH2 0x61 PUSH2 0x5C CALLDATASIZE PUSH1 0x4 PUSH2 0x48A JUMP JUMPDEST PUSH2 0xD4 JUMP JUMPDEST PUSH1 0x40 MLOAD PUSH2 0x6E SWAP2 SWAP1 PUSH2 0x4A1 JUMP JUMPDEST PUSH1 0x40 MLOAD DUP1 SWAP2 SUB SWAP1 RETURN JUMPDEST PUSH2 0x9C PUSH2 0x85 CALLDATASIZE PUSH1 0x4 PUSH2 0x48A JUMP JUMPDEST PUSH0 SWAP1 DUP2 MSTORE PUSH1 0x20 DUP2 SWAP1 MSTORE PUSH1 0x40 SWAP1 KECCAK256 PUSH1 0x1 ADD SLOAD PUSH1 0xFF AND SWAP1 JUMP JUMPDEST PUSH1 0x40 MLOAD SWAP1 ISZERO ISZERO DUP2 MSTORE PUSH1 0x20 ADD PUSH2 0x6E JUMP JUMPDEST PUSH2 0xBF PUSH2 0xBA CALLDATASIZE PUSH1 0x4 PUSH2 0x4ED JUMP JUMPDEST PUSH2 0x1C7 JUMP JUMPDEST STOP JUMPDEST PUSH2 0xBF PUSH2 0xCF CALLDATASIZE PUSH1 0x4 PUSH2 0x4ED JUMP JUMPDEST PUSH2 0x30C JUMP JUMPDEST PUSH0 DUP2 DUP2 MSTORE PUSH1 0x20 DUP2 SWAP1 MSTORE PUSH1 0x40 SWAP1 KECCAK256 PUSH1 0x1 ADD SLOAD PUSH1 0x60 SWAP1 PUSH1 0xFF AND PUSH2 0x12C JUMPI PUSH1 0x40 MLOAD PUSH3 0x461BCD PUSH1 0xE5 SHL DUP2 MSTORE PUSH1 0x20 PUSH1 0x4 DUP3 ADD MSTORE PUSH1 0xD PUSH1 0x24 DUP3 ADD MSTORE PUSH13 0x111251081B9BDD08199BDD5B99 PUSH1 0x9A SHL PUSH1 0x44 DUP3 ADD MSTORE PUSH1 0x64 ADD JUMPDEST PUSH1 0x40 MLOAD DUP1 SWAP2 SUB SWAP1 REVERT JUMPDEST PUSH0 DUP3 DUP2 MSTORE PUSH1 0x20 DUP2 SWAP1 MSTORE PUSH1 0x40 SWAP1 KECCAK256 DUP1 SLOAD PUSH2 0x144 SWAP1 PUSH2 0x562 JUMP JUMPDEST DUP1 PUSH1 0x1F ADD PUSH1 0x20 DUP1 SWAP2 DIV MUL PUSH1 0x20 ADD PUSH1 0x40 MLOAD SWAP1 DUP2 ADD PUSH1 0x40 MSTORE DUP1 SWAP3 SWAP2 SWAP1 DUP2 DUP2 MSTORE PUSH1 0x20 ADD DUP3 DUP1 SLOAD PUSH2 0x170 SWAP1 PUSH2 0x562 JUMP JUMPDEST DUP1 ISZERO PUSH2 0x1BB JUMPI DUP1 PUSH1 0x1F LT PUSH2 0x192 JUMPI PUSH2 0x100 DUP1 DUP4 SLOAD DIV MUL DUP4 MSTORE SWAP2 PUSH1 0x20 ADD SWAP2 PUSH2 0x1BB JUMP JUMPDEST DUP3 ADD SWAP2 SWAP1 PUSH0 MSTORE PUSH1 0x20 PUSH0 KECCAK256 SWAP1 JUMPDEST DUP2 SLOAD DUP2 MSTORE SWAP1 PUSH1 0x1 ADD SWAP1 PUSH1 0x20 ADD DUP1 DUP4 GT PUSH2 0x19E JUMPI DUP3 SWAP1 SUB PUSH1 0x1F AND DUP3 ADD SWAP2 JUMPDEST POP POP POP POP POP SWAP1 POP SWAP2 SWAP1 POP JUMP JUMPDEST PUSH0 DUP4 DUP2 MSTORE PUSH1 0x20 DUP2 SWAP1 MSTORE PUSH1 0x40 SWAP1 KECCAK256 PUSH1 0x1 ADD SLOAD PUSH1 0xFF AND PUSH2 0x21C JUMPI PUSH1 0x40 MLOAD PUSH3 0x461BCD PUSH1 0xE5 SHL DUP2 MSTORE PUSH1 0x20 PUSH1 0x4 DUP3 ADD MSTORE PUSH1 0x12 PUSH1 0x24 DUP3 ADD MSTORE PUSH18 0x111251081B9BDD081C9959DA5CDD195C9959 PUSH1 0x72 SHL PUSH1 0x44 DUP3 ADD MSTORE PUSH1 0x64 ADD PUSH2 0x123 JUMP JUMPDEST PUSH0 DUP4 DUP2 MSTORE PUSH1 0x20 DUP2 SWAP1 MSTORE PUSH1 0x40 SWAP1 KECCAK256 PUSH1 0x1 ADD SLOAD PUSH2 0x100 SWAP1 DIV PUSH1 0x1 PUSH1 0x1 PUSH1 0xA0 SHL SUB AND CALLER EQ PUSH2 0x27A JUMPI PUSH1 0x40 MLOAD PUSH3 0x461BCD PUSH1 0xE5 SHL DUP2 MSTORE PUSH1 0x20 PUSH1 0x4 DUP3 ADD MSTORE PUSH1 0xE PUSH1 0x24 DUP3 ADD MSTORE PUSH14 0x2737BA1031B7B73A3937B63632B9 PUSH1 0x91 SHL PUSH1 0x44 DUP3 ADD MSTORE PUSH1 0x64 ADD PUSH2 0x123 JUMP JUMPDEST PUSH1 0x20 DUP2 EQ PUSH2 0x2C2 JUMPI PUSH1 0x40 MLOAD PUSH3 0x461BCD PUSH1 0xE5 SHL DUP2 MSTORE PUSH1 0x20 PUSH1 0x4 DUP3 ADD MSTORE PUSH1 0x15 PUSH1 0x24 DUP3 ADD MSTORE PUSH21 0x92DCECC2D8D2C840E0EAC496CAF240D8CADCCEE8D PUSH1 0x5B SHL PUSH1 0x44 DUP3 ADD MSTORE PUSH1 0x64 ADD PUSH2 0x123 JUMP JUMPDEST PUSH0 DUP4 DUP2 MSTORE PUSH1 0x20 DUP2 SWAP1 MSTORE PUSH1 0x40 SWAP1 KECCAK256 PUSH2 0x2DA DUP3 DUP5 DUP4 PUSH2 0x5FA JUMP JUMPDEST POP PUSH1 0x40 MLOAD CALLER SWAP1 DUP5 SWAP1 PUSH32 0x894A01CE40996B3C58922261025CA2273E0288FFA7CEE801B3AE4A54A1C4D677 SWAP1 PUSH0 SWAP1 LOG3 POP POP POP JUMP JUMPDEST PUSH0 DUP4 DUP2 MSTORE PUSH1 0x20 DUP2 SWAP1 MSTORE PUSH1 0x40 SWAP1 KECCAK256 PUSH1 0x1 ADD SLOAD PUSH1 0xFF AND ISZERO PUSH2 0x366 JUMPI PUSH1 0x40 MLOAD PUSH3 0x461BCD PUSH1 0xE5 SHL DUP2 MSTORE PUSH1 0x20 PUSH1 0x4 DUP3 ADD MSTORE PUSH1 0x16 PUSH1 0x24 DUP3 ADD MSTORE PUSH22 0x11125108185B1C9958591E481C9959DA5CDD195C9959 PUSH1 0x52 SHL PUSH1 0x44 DUP3 ADD MSTORE PUSH1 0x64 ADD PUSH2 0x123 JUMP JUMPDEST PUSH1 0x20 DUP2 EQ PUSH2 0x3AE JUMPI PUSH1 0x40 MLOAD PUSH3 0x461BCD PUSH1 0xE5 SHL DUP2 MSTORE PUSH1 0x20 PUSH1 0x4 DUP3 ADD MSTORE PUSH1 0x15 PUSH1 0x24 DUP3 ADD MSTORE PUSH21 0x92DCECC2D8D2C840E0EAC496CAF240D8CADCCEE8D PUSH1 0x5B SHL PUSH1 0x44 DUP3 ADD MSTORE PUSH1 0x64 ADD PUSH2 0x123 JUMP JUMPDEST PUSH1 0x40 MLOAD DUP1 PUSH1 0x60 ADD PUSH1 0x40 MSTORE DUP1 DUP4 DUP4 DUP1 DUP1 PUSH1 0x1F ADD PUSH1 0x20 DUP1 SWAP2 DIV MUL PUSH1 0x20 ADD PUSH1 0x40 MLOAD SWAP1 DUP2 ADD PUSH1 0x40 MSTORE DUP1 SWAP4 SWAP3 SWAP2 SWAP1 DUP2 DUP2 MSTORE PUSH1 0x20 ADD DUP4 DUP4 DUP1 DUP3 DUP5 CALLDATACOPY PUSH0 SWAP3 ADD DUP3 SWAP1 MSTORE POP SWAP4 DUP6 MSTORE POP POP PUSH1 0x1 PUSH1 0x20 DUP1 DUP6 ADD SWAP2 SWAP1 SWAP2 MSTORE CALLER PUSH1 0x40 SWAP5 DUP6 ADD MSTORE DUP8 DUP4 MSTORE DUP3 SWAP1 MSTORE POP KECCAK256 DUP2 MLOAD DUP2 SWAP1 PUSH2 0x417 SWAP1 DUP3 PUSH2 0x6B4 JUMP JUMPDEST POP PUSH1 0x20 DUP3 ADD MLOAD PUSH1 0x1 SWAP1 SWAP2 ADD DUP1 SLOAD PUSH1 0x40 SWAP4 DUP5 ADD MLOAD PUSH1 0x1 PUSH1 0x1 PUSH1 0xA0 SHL SUB AND PUSH2 0x100 MUL PUSH2 0x100 PUSH1 0x1 PUSH1 0xA8 SHL SUB NOT SWAP4 ISZERO ISZERO SWAP4 SWAP1 SWAP4 AND PUSH1 0x1 PUSH1 0x1 PUSH1 0xA8 SHL SUB NOT SWAP1 SWAP2 AND OR SWAP2 SWAP1 SWAP2 OR SWAP1 SSTORE MLOAD CALLER SWAP1 DUP5 SWAP1 PUSH32 0xF963D5C3A42BA726123DEA0D456B5E232130B44683F6554AAD80A745BB5965E9 SWAP1 PUSH0 SWAP1 LOG3 POP POP POP JUMP JUMPDEST PUSH0 PUSH1 0x20 DUP3 DUP5 SUB SLT ISZERO PUSH2 0x49A JUMPI PUSH0 DUP1 REVERT JUMPDEST POP CALLDATALOAD SWAP2 SWAP1 POP JUMP JUMPDEST PUSH0 PUSH1 0x20 DUP1 DUP4 MSTORE DUP4 MLOAD DUP1 PUSH1 0x20 DUP6 ADD MSTORE PUSH0 JUMPDEST DUP2 DUP2 LT ISZERO PUSH2 0x4CD JUMPI DUP6 DUP2 ADD DUP4 ADD MLOAD DUP6 DUP3 ADD PUSH1 0x40 ADD MSTORE DUP3 ADD PUSH2 0x4B1 JUMP JUMPDEST POP PUSH0 PUSH1 0x40 DUP3 DUP7 ADD ADD MSTORE PUSH1 0x40 PUSH1 0x1F NOT PUSH1 0x1F DUP4 ADD AND DUP6 ADD ADD SWAP3 POP POP POP SWAP3 SWAP2 POP POP JUMP JUMPDEST PUSH0 DUP1 PUSH0 PUSH1 0x40 DUP5 DUP7 SUB SLT ISZERO PUSH2 0x4FF JUMPI PUSH0 DUP1 REVERT JUMPDEST DUP4 CALLDATALOAD SWAP3 POP PUSH1 0x20 DUP5 ADD CALLDATALOAD PUSH8 0xFFFFFFFFFFFFFFFF DUP1 DUP3 GT ISZERO PUSH2 0x51D JUMPI PUSH0 DUP1 REVERT JUMPDEST DUP2 DUP7 ADD SWAP2 POP DUP7 PUSH1 0x1F DUP4 ADD SLT PUSH2 0x530 JUMPI PUSH0 DUP1 REVERT JUMPDEST DUP2 CALLDATALOAD DUP2 DUP2 GT ISZERO PUSH2 0x53E JUMPI PUSH0 DUP1 REVERT JUMPDEST DUP8 PUSH1 0x20 DUP3 DUP6 ADD ADD GT ISZERO PUSH2 0x54F JUMPI PUSH0 DUP1 REVERT JUMPDEST PUSH1 0x20 DUP4 ADD SWAP5 POP DUP1 SWAP4 POP POP POP POP SWAP3 POP SWAP3 POP SWAP3 JUMP JUMPDEST PUSH1 0x1 DUP2 DUP2 SHR SWAP1 DUP3 AND DUP1 PUSH2 0x576 JUMPI PUSH1 0x7F DUP3 AND SWAP2 POP JUMPDEST PUSH1 0x20 DUP3 LT DUP2 SUB PUSH2 0x594 JUMPI PUSH4 0x4E487B71 PUSH1 0xE0 SHL PUSH0 MSTORE PUSH1 0x22 PUSH1 0x4 MSTORE PUSH1 0x24 PUSH0 REVERT JUMPDEST POP SWAP2 SWAP1 POP JUMP JUMPDEST PUSH4 0x4E487B71 PUSH1 0xE0 SHL PUSH0 MSTORE PUSH1 0x41 PUSH1 0x4 MSTORE PUSH1 0x24 PUSH0 REVERT JUMPDEST PUSH1 0x1F DUP3 GT ISZERO PUSH2 0x5F5 JUMPI DUP1 PUSH0 MSTORE PUSH1 0x20 PUSH0 KECCAK256 PUSH1 0x1F DUP5 ADD PUSH1 0x5 SHR DUP2 ADD PUSH1 0x20 DUP6 LT ISZERO PUSH2 0x5D3 JUMPI POP DUP1 JUMPDEST PUSH1 0x1F DUP5 ADD PUSH1 0x5 SHR DUP3 ADD SWAP2 POP JUMPDEST DUP2 DUP2 LT ISZERO PUSH2 0x5F2 JUMPI PUSH0 DUP2 SSTORE PUSH1 0x1 ADD PUSH2 0x5DF JUMP JUMPDEST POP POP JUMPDEST POP POP POP JUMP JUMPDEST PUSH8 0xFFFFFFFFFFFFFFFF DUP4 GT ISZERO PUSH2 0x612 JUMPI PUSH2 0x612 PUSH2 0x59A JUMP JUMPDEST PUSH2 0x626 DUP4 PUSH2 0x620 DUP4 SLOAD PUSH2 0x562 JUMP JUMPDEST DUP4 PUSH2 0x5AE JUMP JUMPDEST PUSH0 PUSH1 0x1F DUP5 GT PUSH1 0x1 DUP2 EQ PUSH2 0x657 JUMPI PUSH0 DUP6 ISZERO PUSH2 0x640 JUMPI POP DUP4 DUP3 ADD CALLDATALOAD JUMPDEST PUSH0 NOT PUSH1 0x3 DUP8 SWAP1 SHL SHR NOT AND PUSH1 0x1 DUP7 SWAP1 SHL OR DUP4 SSTORE PUSH2 0x5F2 JUMP JUMPDEST PUSH0 DUP4 DUP2 MSTORE PUSH1 0x20 DUP2 KECCAK256 PUSH1 0x1F NOT DUP8 AND SWAP2 JUMPDEST DUP3 DUP2 LT ISZERO PUSH2 0x686 JUMPI DUP7 DUP6 ADD CALLDATALOAD DUP3 SSTORE PUSH1 0x20 SWAP5 DUP6 ADD SWAP5 PUSH1 0x1 SWAP1 SWAP3 ADD SWAP2 ADD PUSH2 0x666 JUMP JUMPDEST POP DUP7 DUP3 LT ISZERO PUSH2 0x6A2 JUMPI PUSH0 NOT PUSH1 0xF8 DUP9 PUSH1 0x3 SHL AND SHR NOT DUP5 DUP8 ADD CALLDATALOAD AND DUP2 SSTORE JUMPDEST POP POP PUSH1 0x1 DUP6 PUSH1 0x1 SHL ADD DUP4 SSTORE POP POP POP POP POP JUMP JUMPDEST DUP2 MLOAD PUSH8 0xFFFFFFFFFFFFFFFF DUP2 GT ISZERO PUSH2 0x6CE JUMPI PUSH2 0x6CE PUSH2 0x59A JUMP JUMPDEST PUSH2 0x6E2 DUP2 PUSH2 0x6DC DUP5 SLOAD PUSH2 0x562 JUMP JUMPDEST DUP5 PUSH2 0x5AE JUMP JUMPDEST PUSH1 0x20 DUP1 PUSH1 0x1F DUP4 GT PUSH1 0x1 DUP2 EQ PUSH2 0x715 JUMPI PUSH0 DUP5 ISZERO PUSH2 0x6FE JUMPI POP DUP6 DUP4 ADD MLOAD JUMPDEST PUSH0 NOT PUSH1 0x3 DUP7 SWAP1 SHL SHR NOT AND PUSH1 0x1 DUP6 SWAP1 SHL OR DUP6 SSTORE PUSH2 0x76C JUMP JUMPDEST PUSH0 DUP6 DUP2 MSTORE PUSH1 0x20 DUP2 KECCAK256 PUSH1 0x1F NOT DUP7 AND SWAP2 JUMPDEST DUP3 DUP2 LT ISZERO PUSH2 0x743 JUMPI DUP9 DUP7 ADD MLOAD DUP3 SSTORE SWAP5 DUP5 ADD SWAP5 PUSH1 0x1 SWAP1 SWAP2 ADD SWAP1 DUP5 ADD PUSH2 0x724 JUMP JUMPDEST POP DUP6 DUP3 LT ISZERO PUSH2 0x760 JUMPI DUP8 DUP6 ADD MLOAD PUSH0 NOT PUSH1 0x3 DUP9 SWAP1 SHL PUSH1 0xF8 AND SHR NOT AND DUP2 SSTORE JUMPDEST POP POP PUSH1 0x1 DUP5 PUSH1 0x1 SHL ADD DUP6 SSTORE JUMPDEST POP POP POP POP POP POP JUMP INVALID LOG2 PUSH5 0x6970667358 0x22 SLT KECCAK256 0xF7 0x27 0x4D PUSH14 0x3E9E6F21FE011E4CF4448197F4E0 JUMP 0x24 0x2D 0xE3 PUSH8 0xD15E48208A843A3E 0xEE PUSH5 0x736F6C6343 STOP ADDMOD XOR STOP CALLER "},"methodIdentifiers":{"isRegistered(bytes32)":"27258b22","registerIssuer(bytes32,bytes)":"c8ce191a","resolveKey(bytes32)":"101accbf","rotateKey(bytes32,bytes)":"90744500"}}}}}